:030000000201D624
:0C01D600787FE4F6D8FD75816F02021DF1
:10036600E4F56AF56B120448E4F56AF56BC3E56BD0
:100376009563E5626480F8E56A64809850EAE56B07
:1003860025E02408F8E6FE08E6FF12000E8E648FCC
:10039600657C017D001202628C688D69AE64AF6572
:1003A6007C017D001202628E668F677FF47E0112E9
:1003B600042FC28C7F057E0012042FD28C056BE5BC
:0703C6006B70AA056A80A616
:03000B0002045F8D
:09045F0085698A85678CB2A5321B
:1002ED008E6E8F6F20B1197F017E0012042F30B1F9
:1002FD00FD7F017E0012042F756E00756F01805415
:10030D0020B0197F017E0012042F30B0FD7F017ED9
:10031D000012042F756E00756F03803820B2197F9F
:10032D00017E0012042F30B2FD7F017E0012042FDA
:10033D00756E00756F05801C20B3197F017E00124C
:10034D00042F30B3FD7F017E0012042F756E0075F2
:09035D006F078000AE6EAF6F2245
:0A042F00EF1FAC0670011E4C600EBA
:0C043900756C02756DBED56DFDD56CFABA
:0304450080E8222A
:100448005389F0438901758A18758CFCC28DD28C4A
:07045800D2A9D2AFC2B92204
:1003CD00205A08000D000D00140014001600160030
:1003DD001400140012001200110011000F000F0084
:1003ED000D001400140012001200110011000F0076
:1003FD000F001400140012001200110011000F0064
:10040D000D000D0014001400160016001400140049
:10041D0012001200110011000F000F000D026200FA
:01042D002DA1
:10000E00E4F56CF56DEE60030201D1EFB42500400E
:10001E00030201D1900029F82828730200980200EB
:10002E00A00200A90200B20200BB0200C40200CD71
:10003E000200D60200DF0200E80200F10200FA021E
:10004E00010302010C02011502011E020127020129
:10005E003002013902014202014B02015302015BDF
:10006E0002016302016B02017302017B0201830232
:10007E00018B02019302019B0201A30201AB02015B
:10008E00B30201BB0201C30201CBE4F56CF56D02B4
:10009E0001D1756CF8756D8C0201D1756CF8756DAA
:1000AE00F30201D1756CF9756D5B0201D1756CF9B6
:1000BE00756DB80201D1756CFA756D150201D175A9
:1000CE006CFA756D670201D1756CFA756DB9020126
:1000DE00D1756CFB756D040201D1756CFB756D4BA2
:1000EE000201D1756CFB756D900201D1756CFB75BB
:1000FE006DCF0201D1756CFC756D100201D1756C5E
:10010E00FC756D440201D1756CFC756D790201D1DF
:10011E00756CFC756DAC0201D1756CFC756DDC02F5
:10012E0001D1756CFD756D090201D1756CFD756D92
:10013E00340201D1756CFD756D5C0201D1756CFDDB
:10014E00756D82807E756CFD756DA68076756CFD05
:10015E00756DC8806E756CFD756DE88066756CFE8C
:10016E00756D06805E756CFE756D228056756CFE23
:10017E00756D3D804E756CFE756D568046756CFEC8
:10018E00756D6E803E756CFE756D858036756CFE78
:10019E00756D9A802E756CFE756DAE8026756CFE33
:1001AE00756DC1801E756CFE756DD38016756CFEF7
:1001BE00756DE4800E756CFE756DF48006756CFFC2
:0701CE00756D03AE6CAF6D0F
:0101D5002207
:1001E200020366E493A3F8E493A34003F68001F2CA
:1001F20008DFF48029E493A3F85407240CC8C3331E
:10020200C4540F4420C8834004F456800146F6DFEC
:10021200E4800B01020408102040809003CDE47EAC
:10022200019360BCA3FF543F30E509541FFEE493E1
:10023200A360010ECF54C025E060A840B8E493A3A8
:10024200FAE493A3F8E493A3C8C582C8CAC583CAD3
:10025200F0A3C8C582C8CAC583CADFE9DEE780BE8B
:01042E0000CD
:10026200C2D5EC30E709B2D5E4C39DFDE49CFCEEB7
:1002720030E715B2D5E4C39FFFE49EFE120298C395
:10028200E49DFDE49CFC800312029830D507C3E490
:060292009FFFE49EFE2226
:10029800BC000BBE0029EF8DF084FFADF022E4CC4A
:1002A800F875F008EF2FFFEE33FEEC33FCEE9DEC13
:1002B800984005FCEE9DFE0FD5F0E9E4CEFD22ED59
:1002C800F8F5F0EE8420D21CFEADF075F008EF2FA3
:1002D800FFED33FD4007985006D5F0F222C398FD94
:0502E8000FD5F0EA2231
:00000001FF
