:0F17E0002D003A00307825303258004844590027
:10169A00E4FD7F801216CB7D407F821216CB7D033C
:1016AA007F841216CB7D147F861216CB7D077F8A24
:1016BA001216CB7D077F881216CB7D247F8C0216EB
:0116CA00CB54
:101668007F8112153F8F087F8312153F8F097F8571
:1016780012153F8F0F7F8712153F8F0E7F8B121524
:101688003F8F0C7F8912153F8F0A7F8D12153F8F70
:021698000D2221
:1013C400752E027B147A007D017F01121780E50DD2
:1013D400C4540F75F00AA4FFE50D540F7C002FFBD5
:1013E400EC35F0FA752E027D037F011217807BFF26
:1013F4007A1779E07D057F0112173FE50AC4540F7F
:1014040075F00AA4FFE50A540F7C002FFBEC35F0BD
:10141400FA752E027D067F011217807BFF7A1779F9
:10142400E07D087F0112173FE50EC4540F75F00AE2
:10143400A4FFE50E540F7C002FFBEC35F0FA752E5B
:10144400027D097F01121780E50FC4540F75F00A5D
:10145400A4FFE50F540F7C002FFBEC35F0FA752E3A
:10146400027D057F021217807BFF7A1779E27D07E0
:101474007F0212173FE509C4540F75F00AA4FFE573
:1014840009540F7C002FFBEC35F0FA752E027D0811
:101494007F021217807BFF7A1779E27D0A7F02129E
:1014A400173FE508C4540F75F00AA4FFE508540F6C
:1014B4007C002FFBEC35F0FA752E027D0B7F0202C7
:0214C40017808F
:10000300E4F522F523F524F525FFFE1214C6EF4E81
:100013007003020CF6EF64014E6003020CF6E4FF7A
:10002300FE1214C68E248F25E525452460F0E525B0
:10003300640145247003020CF6E52564024524702F
:10004300DD850D13E4FFFE1214C68E228F23E523F4
:1000530064014522700302026EE5236402452270A7
:100063000CE513650D700302026E02018CE5236437
:100073000345227048E513C4540FFB75F00AA4FF2F
:10008300E513540F7C002FFFEC35F0CF2401CF3460
:1000930000FE7D0A121092EFC454F0FAEB75F00AD9
:1000A300A4FFE513540F7C002FFFEC35F0CF2401A0
:1000B300CF3400FE7D0A121092EA2DF513E5236476
:1000C3000445227048E513C4540FFB75F00AA4FFDE
:1000D300E513540F7C002FFFEC35F0CF24FFCF3412
:1000E300FFFE7D0A121092EFC454F0FAEB75F00A8A
:1000F300A4FFE513540F7C002FFFEC35F0CF24FF52
:10010300CF34FFFE7D0A121092EA2DF513752E02ED
:10011300E4FBFA7D017F01121780752E02E4FBFADE
:100123007D037F011217807F327E0012179D752E8B
:10013300027B147A007D017F01121780E513C454FA
:100143000F75F00AA4FFE513540F7C002FFBEC3569
:10015300F0FA752E027D037F011217807F327E0035
:1001630012179DE4FFFE1214C68E228F23E523642B
:10017300014522700302026EE523640245227045A5
:10018300E513650D700302026E752DFF752E17754D
:100193002FE48513307B007A007926120D53752DD9
:1001A30000752E00752F007530107B007A007926BC
:1001B3001212208F29121825AD297F8C1216CB8598
:1001C300130D02026EE523640345227048E513C450
:1001D300540FFB75F00AA4FFE513540F7C002FFFA7
:1001E300EC35F0CF2401CF3400FE7D0A121092EFDC
:1001F300C454F0FAEB75F00AA4FFE513540F7C0026
:100203002FFFEC35F0CF2401CF3400FE7D0A12100E
:1002130092EA2DF513E523640445226003020047A7
:10022300E513C4540FFB75F00AA4FFE513540F7CC8
:10023300002FFFEC35F0CF24FFCF34FFFE7D0A12F1
:100243001092EFC454F0FAEB75F00AA4FFE51354CF
:100253000F7C002FFFEC35F0CF24FFCF34FFFE7D62
:100263000A121092EA2DF513020047E523640145B3
:10027300227003020CF6850A11E4FFFE1214C68EE7
:10028300228F23E523640145227003020488E523BA
:1002930064024522700CE511650A700302048802AA
:1002A30003A6E523640345227048E511C4540FFBFC
:1002B30075F00AA4FFE511540F7C002FFFEC35F015
:1002C300CF2401CF3400FE7D0A121092EFC454F004
:1002D300FAEB75F00AA4FFE511540F7C002FFFEC35
:1002E30035F0CF2401CF3400FE7D0A121092EA2D9F
:1002F300F511E523640445227048E511C4540FFB4E
:1003030075F00AA4FFE511540F7C002FFFEC35F0C4
:10031300CF24FFCF34FFFE7D0A121092EFC454F0B6
:10032300FAEB75F00AA4FFE511540F7C002FFFECE4
:1003330035F0CF24FFCF34FFFE7D0A121092EA2D51
:10034300F511752E02E4FBFA7D067F011217807FFB
:10035300327E0012179DE511C4540F75F00AA4FFF5
:10036300E511540F7C002FFBEC35F0FA752E027D5E
:10037300067F011217807F327E0012179DE4FFFE75
:100383001214C68E228F23E52364014522700302D3
:100393000488E523640245227045E511650A70036C
:1003A300020488752DFF752E17752FE48511307B98
:1003B300007A007926120D53752D00752E00752FC6
:1003C300007530107B007A0079261212208F2912D3
:1003D3001825AD297F881216CB85110A020488E5FA
:1003E30023640345227048E511C4540FFB75F00ADA
:1003F300A4FFE511540F7C002FFFEC35F0CF24014F
:10040300CF3400FE7D0A121092EFC454F0FAEB755C
:10041300F00AA4FFE511540F7C002FFFEC35F0CF59
:100423002401CF3400FE7D0A121092EA2DF511E566
:100433002364044522600302027CE511C4540FFBCC
:1004430075F00AA4FFE511540F7C002FFFEC35F083
:10045300CF24FFCF34FFFE7D0A121092EFC454F075
:10046300FAEB75F00AA4FFE511540F7C002FFFECA3
:1004730035F0CF24FFCF34FFFE7D0A121092EA2D10
:10048300F51102027CE523640145227003020CF698
:10049300850E14E4FFFE1214C68E228F23E5236417
:1004A30001452270030206A2E52364024522700C73
:1004B300E514650E70030206A20205C0E52364037A
:1004C30045227048E514C4540FFB75F00AA4FFE5F8
:1004D30014540F7C002FFFEC35F0CF2401CF3400F0
:1004E300FE7D0A121092EFC454F0FAEB75F00AA4E1
:1004F300FFE514540F7C002FFFEC35F0CF2401CF20
:100503003400FE7D0A121092EA2DF514E5236404EB
:1005130045227048E514C4540FFB75F00AA4FFE5A7
:1005230014540F7C002FFFEC35F0CF24FFCF34FFA2
:10053300FE7D0A121092EFC454F0FAEB75F00AA490
:10054300FFE514540F7C002FFFEC35F0CF24FFCFD1
:1005530034FFFE7D0A121092EA2DF514752E02E483
:10056300FBFA7D097F011217807F327E0012179DEF
:10057300E514C4540F75F00AA4FFE514540F7C006E
:100583002FFBEC35F0FA752E027D097F01121780DF
:100593007F327E0012179DE4FFFE1214C68E228F57
:1005A30023E5236401452270030206A2E5236402C6
:1005B30045227045E514650E70030206A2752DFFF2
:1005C300752E17752FE48514307B007A0079261277
:1005D3000D53752D00752E00752F007530107B009F
:1005E3007A0079261212208F29121825AD297F86C9
:1005F3001216CB85140E0206A2E52364034522706E
:1006030048E514C4540FFB75F00AA4FFE514540F16
:100613007C002FFFEC35F0CF2401CF3400FE7D0AA0
:10062300121092EFC454F0FAEB75F00AA4FFE5142C
:10063300540F7C002FFFEC35F0CF2401CF3400FEA4
:100643007D0A121092EA2DF514E523640445226015
:1006530003020496E514C4540FFB75F00AA4FFE5E6
:1006630014540F7C002FFFEC35F0CF24FFCF34FF61
:10067300FE7D0A121092EFC454F0FAEB75F00AA44F
:10068300FFE514540F7C002FFFEC35F0CF24FFCF90
:1006930034FFFE7D0A121092EA2DF514020496E54A
:1006A30023640145227003020CF6850F15E4FFFE57
:1006B3001214C68E228F23E52364014522700302A0
:1006C30008BCE52364024522700CE515650F700331
:1006D3000208BC0207DAE523640345227048E515E6
:1006E300C4540FFB75F00AA4FFE515540F7C002FCB
:1006F300FFEC35F0CF2401CF3400FE7D0A121092B7
:10070300EFC454F0FAEB75F00AA4FFE515540F7C1F
:10071300002FFFEC35F0CF2401CF3400FE7D0A1209
:100723001092EA2DF515E523640445227048E5157A
:10073300C4540FFB75F00AA4FFE515540F7C002F7A
:10074300FFEC35F0CF24FFCF34FFFE7D0A12109269
:10075300EFC454F0FAEB75F00AA4FFE515540F7CCF
:10076300002FFFEC35F0CF24FFCF34FFFE7D0A12BC
:100773001092EA2DF515752E02E4FBFA7D057F0232
:100783001217807F327E0012179DE515C4540F7532
:10079300F00AA4FFE515540F7C002FFBEC35F0FAAB
:1007A300752E027D057F021217807F327E0012179D
:1007B3009DE4FFFE1214C68E228F23E523640145B8
:1007C3002270030208BCE523640245227045E51547
:1007D300650F70030208BC752DFF752E17752FE486
:1007E3008515307B007A007926120D53752D00751F
:1007F3002E00752F007530107B007A0079261212B7
:10080300208F29121825AD297F841216CB85150F49
:100813000208BCE523640345227048E515C4540F60
:10082300FB75F00AA4FFE515540F7C002FFFEC3590
:10083300F0CF2401CF3400FE7D0A121092EFC4548E
:10084300F0FAEB75F00AA4FFE515540F7C002FFFB7
:10085300EC35F0CF2401CF3400FE7D0A121092EA6A
:100863002DF515E5236404452260030206B0E51562
:10087300C4540FFB75F00AA4FFE515540F7C002F39
:10088300FFEC35F0CF24FFCF34FFFE7D0A12109228
:10089300EFC454F0FAEB75F00AA4FFE515540F7C8E
:1008A300002FFFEC35F0CF24FFCF34FFFE7D0A127B
:1008B3001092EA2DF5150206B0E523640145227076
:1008C30003020CF6850910E4FFFE1214C68E228F74
:1008D30023E523640145227003020ADBE523640256
:1008E3004522700CE51065097003020ADB0209F466
:1008F300E523640345227048E510C4540FFB75F0EB
:100903000AA4FFE510540F7C002FFFEC35F0CF2431
:1009130001CF3400FE7D0A121092EFC454F0FAEBBB
:1009230075F00AA4FFE510540F7C002FFFEC35F09F
:10093300CF2401CF3400FE7D0A121092EA2DF51068
:10094300E523640445227048E510C4540FFB75F099
:100953000AA4FFE510540F7C002FFFEC35F0CF24E1
:10096300FFCF34FFFE7D0A121092EFC454F0FAEB6E
:1009730075F00AA4FFE510540F7C002FFFEC35F04F
:10098300CF24FFCF34FFFE7D0A121092EA2DF5101B
:10099300752E02E4FBFA7D087F021217807F327EF8
:1009A3000012179DE510C4540F75F00AA4FFE5105B
:1009B300540F7C002FFBEC35F0FA752E027D087F77
:1009C300021217807F327E0012179DE4FFFE12147D
:1009D300C68E228F23E523640145227003020ADBBE
:1009E300E523640245227045E51065097003020A98
:1009F300DB752DFF752E17752FE48510307B007A7C
:100A0300007926120D53752D00752E00752F007574
:100A130030107B007A0079261212208F29121825B4
:100A2300AD297F821216CB851009020ADBE5236408
:100A33000345227048E510C4540FFB75F00AA4FF68
:100A4300E510540F7C002FFFEC35F0CF2401CF3499
:100A530000FE7D0A121092EFC454F0FAEB75F00A0F
:100A6300A4FFE510540F7C002FFFEC35F0CF2401D9
:100A7300CF3400FE7D0A121092EA2DF510E52364AF
:100A83000445227048E510C4540FFB75F00AA4FF17
:100A9300E510540F7C002FFFEC35F0CF24FFCF344B
:100AA300FFFE7D0A121092EFC454F0FAEB75F00AC0
:100AB300A4FFE510540F7C002FFFEC35F0CF24FF8B
:100AC300CF34FFFE7D0A121092EA2DF510E5236460
:100AD30001452260030208CA85080BE4FFFE1214D5
:100AE300C68E228F23E523640145227003020CEA9C
:100AF300E52364024522700CE50B65087003020CC4
:100B0300EA020C08E523640345227048E50BC4544C
:100B13000FFB75F00AA4FFE50B540F7C002FFFECCD
:100B230035F0CF2401CF3400FE7D0A121092EFC4BA
:100B330054F0FAEB75F00AA4FFE50B540F7C002F79
:100B4300FFEC35F0CF2401CF3400FE7D0A12109262
:100B5300EA2DF50BE523640445227048E50BC454E4
:100B63000FFB75F00AA4FFE50B540F7C002FFFEC7D
:100B730035F0CF24FFCF34FFFE7D0A121092EFC46D
:100B830054F0FAEB75F00AA4FFE50B540F7C002F29
:100B9300FFEC35F0CF24FFCF34FFFE7D0A12109215
:100BA300EA2DF50B752E02E4FBFA7D0B7F0212177B
:100BB300807F327E0012179DE50BC4540F75F00A37
:100BC300A4FFE50B540F7C002FFBEC35F0FA752ED8
:100BD300027D0B7F021217807F327E0012179DE485
:100BE300FFFE1214C68E228F23E523640145227073
:100BF30003020CEAE523640245227045E50B650810
:100C03007003020CEA752DFF752E17752FE4850B03
:100C1300307B007A007926120D53752D00752E0056
:100C2300752F007530107B007A0079261212208F01
:100C330029121825AD297F801216CB850B08020CCB
:100C4300EAE523640345227048E50BC4540FFB75A2
:100C5300F00AA4FFE50B540F7C002FFFEC35F0CF17
:100C63002401CF3400FE7D0A121092EFC454F0FA2F
:100C7300EB75F00AA4FFE50B540F7C002FFFEC3556
:100C8300F0CF2401CF3400FE7D0A121092EA2DF535
:100C93000BE523640445226003020ADEE50BC4541A
:100CA3000FFB75F00AA4FFE50B540F7C002FFFEC3C
:100CB30035F0CF24FFCF34FFFE7D0A121092EFC42C
:100CC30054F0FAEB75F00AA4FFE50B540F7C002FE8
:100CD300FFEC35F0CF24FFCF34FFFE7D0A121092D4
:100CE300EA2DF50B020ADEE52364014522600302C7
:030CF300002122BB
:010CF60022DB
:10171B001217CC7BFF7A1779EB7D0E7F0112173FE7
:10172B0012182512181E12169A1216681213C412CA
:04173B00000380F532
:0617EF00C2A58F80D2A705
:0817F5007F027EEFDEFEDFFC47
:0117FD0022C9
:0A180A00C2A61217EFC2A70217F5DD
:10176200CFCDCFCECCCE1210927C007D0A12109239
:04177200ED2430FF33
:0A177600D2A61217EFC2A70217F562
:1017B600AE07BE0104ED148006BE0209ED243F44C7
:0617C60080FF12180A2248
:1017CC007F3812180A7F0C12180A7F0612180A7F2B
:0417DC000102180AE4
:0A181400AC031217B6AF04021776FA
:06173F008B228A2389249D
:101745001217B6E4FDAB22AA23A9248D8275830066
:0C175500121053FF60061217760D80E999
:011761002265
:0C1635007F0AEA24FFFDE434FFFC7E0085
:081641008E2F8F308C318D32A9
:101649007F017E00E4FBEBC39532E5316480F874D9
:0E1659008098500AAC2FAD301210800B80E844
:011667002260
:041780008A2C8B2DF7
:101784001217B6AA2EEAD39400400D121635AC2CCB
:08179400AD2D1217621A80ED61
:01179C00222A
:10158A001217B6C3EA64809480400B7F2B12177639
:10159A008A1B8B1C800E7F2D121776C3E49BF51CC9
:1015AA00E49AF51BAA1AEAD39400400D121635AC38
:0915BA001BAD1C1217621A80ED32
:0115C3002205
:0415C4008A408B418D
:1015C8001217B6AA42EAD3940040297F10121637A0
:1015D800AC40AD41CFCDCFCECCCE121092EF540F50
:1015E800FEC3940AEE5004243080022437FF1217F9
:0415F800761A80D10E
:0115FC0022CC
:0415FD008A458B464A
:101601001217B6AA47EAD394004028EA24FFFDE462
:1016110034FFFC7F027E00121641AC45AD46CFCDB2
:10162100CFCECCCE121092EF54012430FF12177698
:031631001A80D24A
:011634002293
:07181E00E4FD7F8E0216CBF2
:05182500C2B5C2B622AD
:1016CB00D2B5E4FEEF1392B4EFC313FFD2B6C2B69A
:1016DB000EBE08F0E4FEED1392B4EDC313FDD2B6CB
:0816EB00C2B60EBE08F0C2B544
:0116F30022D4
:02153F00A907FA
:10154100E4FDFBD2B574017E00A805088005C33314
:10155100CE33CED8F9FFE9F582EF558224FF92B45C
:10156100C2B6D2B60DBD08DDC2B4E4FDD2B6C2B674
:1015710030B40D7401A805088002C333D8FC4203BE
:081581000DBD08E8C2B5AF037F
:01158900223F
:0A179D00EF1FAC0670011E4C600E39
:0C17A700752C0B752DBED52DFDD52CFA30
:0317B30080E822A9
:1014C6008E2A8F2B20B1197F017E0012179D30B115
:1014D600FD7F017E0012179D752A00752B01805431
:1014E60020B0197F017E0012179D30B0FD7F017E6E
:1014F6000012179D752A00752B02803820B2197FBD
:10150600017E0012179D30B2FD7F017E0012179DED
:10151600752A00752B03801C20B3197F017E0012EB
:10152600179D30B3FD7F017E0012179D752A007549
:091536002B048000AE2AAF2B2229
:030000000217FEE6
:0C17FE00787FE4F6D8FD75814702171BC8
:10105300BB010CE58229F582E5833AF583E0225052
:1010630006E92582F8E622BBFE06E92582F8E2229C
:0D107300E58229F582E5833AF583E49322B6
:10108000EF8DF0A4A8F0CF8CF0A428CE8DF0A42E84
:02109000FE223E
:10109200BC000BBE0029EF8DF084FFADF022E4CC42
:1010A200F875F008EF2FFFEE33FEEC33FCEE9DEC0B
:1010B200984005FCEE9DFE0FD5F0E9E4CEFD22ED51
:1010C200F8F5F0EE8420D21CFEADF075F008EF2F9B
:1010D200FFED33FD4007985006D5F0F222C398FD8C
:0510E2000FD5F0EA2229
:100CF700E539242DF8E6053922782A300702782DC0
:100D0700E475F0011211800210E72000EB7F2ED26C
:100D1700008018EF540F2490D43440D4FF30040BD4
:100D2700EF24BFB41A0050032461FFE53A600215AF
:100D37003A053DE53D7002053C30070D782AE4751C
:100D4700F001121180EF0211000216F47403D207AA
:100D57008003E4C207F5398B2A8A2B892CE4F53AFC
:100D6700F53CF53DE53A60077F20120D3280F575B9
:100D77003BFFC201C200C202C203C205C206C208CB
:100D8700120D00FF700D3007057F00120D43AF3DB8
:100D9700AE3C22B4255FC2D5C204120D00FF24D099
:100DA700B40A00501A75F00A783A30D50508B6FF2C
:100DB7000106C6A426F620D5047002D20380D924E2
:100DC700CFB41A00EF5004C2E5D204020F43D20198
:100DD70080C6D20080C0D20280BCD2D580BAD205EC
:100DE70080B47F20120D322002077401B53A00400B
:100DF700F1120CF7FF120D32020D6BD208D20680EA
:100E070095120CF7FB120CF7FA120CF7F94A4B7014
:100E17000679147A107BFF20022EE53A602A7E00BD
:100E27008E8275830012105360060EEE653B70F0DC
:100E3700C2D5EBC0E0EAC0E0E9C0E0EE120F8AD00D
:100E4700E0F9D0E0FAD0E0FB1210E7FF60AAEBC0B0
:100E5700E0EAC0E0E9C0E0120D32D0E02401F9D0A9
:100E6700E03400FAD0E0FBE53B0460DCD53BD980F9
:100E7700877BFF7A0F7986D202809C79108002796E
:100E870008C206C2088008D2D5790A8004790AC246
:100E9700D5E53B047002F53BE4FAFDFEFF120CF7C3
:100EA700FC7B08200113120CF7FD7B1030000A129F
:100EB7000CF7FE120CF7FF7B20EC3382D592D5504E
:100EC70013C3E43000069FFFE49EFEE42001039D68
:100ED700FDE49CFCE4CBF8C201EC700CCFCECDCC8A
:100EE700E824F8F870F38017C3EF33FFEE33FEED15
:100EF70033FDEC33FCEB33FB994002FB0FD8E9EBF6
:100F0700300105F8D0E0C448B201C0E00AEC4D4E0C
:100F17004F78207B0070C2EAB53B0040BCC0E012AE
:100F27000F8CD0F0D0E0200104C4C0E0C4B201C0EF
:100F3700F0120D1BD0F0D5F0EB020D6B1211DF0E86
:100F470008530E82580DD94C0DD5420E864F0E8E82
:0F0F5700440E8E490DEE430E94550E78460E78DB
:100F6600450E78471034500DDD2D0DE12E0E042B65
:100F76000DE5230E0220101D2A0D9D4800000DFCD4
:100F86003F3F3F00790AA2D5200314300509B91066
:100F9600020404B9080104A2D52006025001042067
:100FA60002689202B53A005034C0E07F203003193F
:100FB6007F30A20272067205500F120FE3C202C200
:100FC60006C205C2087F30800F300503E9C0E01273
:100FD6000D32300503D0E0F9D0E0B53ACC30051734
:100FE6007F30B9100C120D327F583004077F78809D
:100FF60003B90803120D323002057F2D020D327F30
:10100600202008F87F2B2006F322920280CF286E3C
:10101600756C6C2900D201120CF73001F8C2017808
:101026003A30D50108F6020D9D2D50434958120C51
:10103600F72403B405004001E490102F93120D230A
:0D104600743A120D23D203753A04020E8293
:101220008B2A8A2B892CE4F536F535F534F533F520
:1012300031F532E52E452F452D6012EBC0E0EAC0B6
:10124000E0E9C0E0AB2DAA2EA92F121190AB2A0520
:101250002CE52CAA2B7002052B14F91210E7F53798
:10126000C394094007E537D3940D40E1E537642086
:1012700060DBE537B42D054332038016E537B42B28
:1012800005433201800C74FF252CF52C74FF352B9F
:10129000F52BE53060046410703FAB2AAA2BA92C13
:1012A0001210E764306009E530702E75300A80292D
:1012B000900001121053FF64786004EFB458134398
:1012C00032017530107402252CF52CE4352BF52BEA
:1012D0008007E5307003753008AB2A052CE52CAA91
:1012E0002B7002052B14F91210E7F537C3946140F7
:1012F0000AE537D3947A50035337DF74D02537F596
:1013000037C3940A400CE5379411406D74F92537C2
:10131000F537E537C39530506043320185363B855C
:10132000353A853439853338AF307E00E4FCFDAB87
:1013300036AA35A934A833121112C8ECC8C9EDC9B0
:10134000CAEECACBEFCBE4FCFDFEEB2537F536EE5B
:101350003AF535ED39F534EC38F533AF36AE35AD19
:1013600034FCAB3BAA3AA939A838D312116F500309
:101370000212D94332040212D9E53220E003E4809C
:101380002DE52E452F452D601EAB2AE52C24FFF9B7
:10139000E52B34FFFAEBC0E0EAC0E0E9C0E0AB2D9A
:1013A000AA2EA92F121190E53230E20774FFFFFE3A
:1013B000FDFC22E532AF36AE35AD34AC3330E1035F
:0413C0000211612293
:1010E700BB010689828A83E0225002E722BBFE0207
:0910F700E32289828A83E493223A
:10110000BB010689828A83F0225002F722BBFE01CE
:02111000F322C8
:10111200E88FF0A4CC8BF0A42CFCE98EF0A42CFC7C
:101122008AF0EDA42CFCEA8EF0A4CDA8F08BF0A4FA
:101132002DCC3825F0FDE98FF0A42CCD35F0FCEB59
:101142008EF0A4FEA9F0EB8FF0A4CFC5F02ECD391E
:0F115200FEE43CFCEAA42DCE35F0FDE43CFC228B
:0E116100C3E49FFFE49EFEE49DFDE49CFC229F
:10116F00EB9FF5F0EA9E42F0E99D42F0E89C45F0D6
:01117F00224D
:10118000FAE6FB0808E6F925F0F618E6CA3AF62270
:10119000BB011A89828A83D0F0D0E0F8D0E0F9D080
:1011A000E0FAD0E0FBE8C0E0C0F002120E5016E911
:1011B000F8D083D082D0E0F9D0E0FAD0E0FBC08252
:1011C000C083021205BBFE16E9F8D083D082D0E0BE
:0F11D000F9D0E0FAD0E0FBC082C08302121722F0
:1011DF00D083D082F8E4937012740193700DA3A39F
:1011EF0093F8740193F5828883E4737402936860B3
:0611FF00EFA3A3A380DFB3
:1016F400EFB40A07740D1216FF740A309811A899F2
:10170400B8130CC2983098FDA899C298B811F63055
:0717140099FDC299F599222D
:09120500EBF608EAF608E9F6220E
:09120E00EBF0A3EAF0A3E9F022E1
:09121700EBF208EAF208E9F22208
:00000001FF
