:030000000202DC1D
:0C02DC00787FE4F6D8FD758155020323FD
:04044D000254000055
:10022D00AF55AE541203688E548F55E55470F1E5F9
:10023D005514B4080050E990025275F003A4C5831B
:10024D0025F0C5837302026A02027702027F020261
:10025D009202029A0202AD0202B50202CE1204729D
:10026D000555E5557004055480007D017C007F081F
:10027D0080471204720555E555700205547D027CC8
:10028D00007F0780347D027C007F07802C12047272
:10029D000555E555700205547D037C007F068019D8
:1002AD007D037C007F0680111204720555E55570A3
:1002BD000205547D047C007F057E001203E10202DD
:0F02CD002D7D047C007F057E001203E102022DCF
:0A049100EF1FAC0670011E4C600E58
:0C049B007552027553BED553FDD552FAC0
:0304A70080E822C8
:1004AA0000000800000A00000C00000E0000100006
:0804BA000012000014000016FE
:100451001E3200003F00000600005B00004F00005C
:100461006600006D00007D00000700007F00006F46
:1003E100EE705BEF14B4080050549003F975F003FC
:1003F100A4C58325F0C58373020411020415020408
:100401001902041D020421020429020431020439E3
:10041100C2A4800EC2A48012C2A48016C2A4801AF3
:10042100D2A4C2A3C2A28016D2A4C2A3D2A2800E19
:10043100D2A4D2A3C2A28006D2A4D2A3D2A2ED7525
:0C044100F003A42432F80808E6F580223D
:0C0124008E088F098C0A8D0B8A0C8B0D45
:1001300078187C007D007BFF7A0479AA7E007F1806
:100140001200D3E4F530F531E53175F003A424183D
:10015000F8860308E6FA08E6F91200F945F070039C
:10016000020216E5306003020216E531B4080040D1
:100170000302021690017BF8282873020193020102
:10018000A30201B30201C30201D30201E30201F39E
:10019000020202AD09AC087F087E001203E17F0174
:1001A000120491AD0BAC0A7F077E001203E17F01C0
:1001B000120491AD0DAC0C7F067E001203E17F01AD
:1001C000120491AD0FAC0E7F057E001203E17F019A
:1001D000120491AD11AC107F047E001203E17F0187
:1001E000120491AD13AC127F037E001203E17F0174
:1001F000120491AD15AC147F027E001203E11F12B0
:100200000491AD17AC167F017E001203E112049138
:100210007530007531080531E53170020530C39441
:0C02200008E5306480948050030201481F
:01022C0022AF
:100368008E508F5120B1197F017E0012049130B157
:10037800FD7F017E00120491755000755101805473
:1003880020B0197F017E0012049130B0FD7F017EFC
:1003980000120491755000755103803820B2197FFE
:1003A800017E0012049130B2FD7F017E001204919B
:1003B800755000755105801C20B3197F017E00120D
:1003C800049130B3FD7F017E0012049175500075D1
:0903D80051078000AE50AF512224
:100472007550017551F4E5511551AE507002155089
:0E0482004E600BB2A57F017E0012049180E84F
:010490002249
:1002E80002022DE493A3F8E493A34003F68001F2FD
:1002F80008DFF48029E493A3F85407240CC8C33317
:10030800C4540F4420C8834004F456800146F6DFE5
:10031800E4800B010204081020408090044DE47E24
:10032800019360BCA3FF543F30E509541FFEE493DA
:10033800A360010ECF54C025E060A840B8E493A3A1
:10034800FAE493A3F8E493A3C8C582C8CAC583CACC
:10035800F0A3C8C582C8CAC583CADFE9DEE780BE84
:01047100008A
:10000300E709F608DFFA8046E709F208DFFA803EDF
:1000130088828C83E709F0A3DFFA8032E309F608CC
:10002300DFFA8078E309F208DFFA807088828C8334
:10003300E309F0A3DFFA806489828A83E0A3F608E8
:10004300DFFA805889828A83E0A3F208DFFA804CC2
:1000530080D280FA80C680D4806980F28033801099
:1000630080A680EA809A80A880DA80E280CA803302
:1000730089828A83ECFAE493A3C8C582C8CCC5837A
:10008300CCF0A3C8C582C8CCC583CCDFE9DEE7804A
:100093000D89828A83E493A3F608DFF9ECFAA9F0C9
:1000A300EDFB2289828A83ECFAE0A3C8C582C8CC1F
:1000B300C583CCF0A3C8C582C8CCC583CCDFEADE38
:1000C300E880DB89828A83E493A3F208DFF980CC9A
:1000D30088F0EF60010E4E60C388F0ED2402B40493
:1000E3000050B9F582EB2402B4040050AF2323453A
:0600F3008223900053730C
:1000F900BB010A89828A83E0F5F0A3E022500687D2
:10010900F009E71922BBFE07E3F5F009E319228993
:0B011900828A83E493F5F074019322C6
:00000001FF
