:0C013D00020A0000020C00FE0208000094
:0F011100850DA012012F1200F78E0A8F0B80F4BC
:03000B0002009A56
:0B009A00C0E0C0D075D000C000C0075F
:1000A500758A40758CA20509E50970020508C39497
:1000B500F4E508648094814030750800750900E511
:1000C5000B6401450A700DAF0D7801EF088001231F
:1000D500D8FDF5A0E50B6402450A700DAF0D78015A
:0900E500EF08800103D8FDF5A02D
:0900EE00D007D000D0D0D0E032E0
:1000F70030A00320A1FA20A0057E007F012220A1C5
:0A010700057E007F0222E4FEFF22C5
:0E012000EF4E600A7D187C55DCFEDDFC80F29F
:01012E0022AE
:0E012F005389F0758A40758CA2C28DD28C2245
:0300000002000EED
:0C000E00787FE4F6D8FD75810D020055E6
:10001A00020111E493A3F8E493A34003F68001F2EA
:10002A0008DFF48029E493A3F85407240CC8C333E7
:10003A00C4540F4420C8834004F456800146F6DFB6
:10004A00E4800B010204081020408090013DE47E08
:10005A00019360BCA3FF543F30E509541FFEE493AB
:10006A00A360010ECF54C025E060A840B8E493A372
:10007A00FAE493A3F8E493A3C8C582C8CAC583CA9D
:10008A00F0A3C8C582C8CAC583CADFE9DEE780BE55
:0101490000B5
:00000001FF
