:1001F30048656C6C6F2C4920616D006875646F6E87
:100203006779616E67006F6E652773206861636B42
:0102130000EA
:10024F00E4752530752475F523F522782274FF1295
:08025F000099EC4D4E4F70F3C5
:010267002274
:1000B70012027E7BFF7A0179F37D017F011201D065
:1000C70012024F12027E7BFF7A0179FE7D017F01CA
:1000D7001201D012024F12027E7BFF7A0279097D4C
:0B00E700017F011201D012024F80C502
:06029200C2A58F80D2A777
:080298007F027EEFDEFEDFFCB9
:0102A000223B
:0A02AD00C2A6120292C2A702029834
:10021400CFCDCFCECCCE1200427C007D0A1200425C
:04022400ED2430FF96
:0A022800D2A6120292C2A7020298A9
:10026800AE07BE0104ED148006BE0209ED243F442A
:0602780080FF1202AD221E
:10027E007F381202AD7F0C1202AD7F061202AD7FE7
:04028E00010202ADBA
:0A02B700AC03120268AF0402022833
:0601D0008B228A23892422
:1001D600120268E4FDAB22AA23A9248D827583004E
:0C01E600120003FF60061202280D80E9E1
:0101F20022EA
:0C019D007F0AEA24FFFDE434FFFC7E0032
:0801A9008E1E8F1F8C208D219A
:1001B1007F017E00E4FBEBC39521E5206480F874A8
:0E01C1008098500AAC1EAD1F1200300B80E873
:0101CF00220D
:040232008A118B1290
:10023600120268AA13EAD39400400D12019DAC1174
:08024600AD121202141A80ED42
:01024E00228D
:1000F200120268C3EA64809480400B7F2B120228AC
:100102008A0D8B0E800E7F2D120228C3E49BF50E02
:10011200E49AF50DAA0CEAD39400400D12019DACAD
:090122000DAD0E1202141A80ED5D
:01012B0022B1
:04012C008A168B178D
:10013000120268AA18EAD3940040297F1012019F86
:10014000AC16AD17CFCDCFCECCCE120042EF540FB0
:10015000FEC3940AEE5004243080022437FF1202BA
:04016000281A80D108
:010164002278
:040165008A1B8B1C4A
:10016900120268AA1DEAD394004028EA24FFFDE49C
:1001790034FFFC7F027E001201A9AC1BAD1CCFCD60
:10018900CFCECCCE120042EF54012430FF12022808
:030199001A80D2F7
:01019C002240
:030000000202A158
:0C02A100787FE4F6D8FD7581250200B7D7
:10000300BB010CE58229F582E5833AF583E02250B2
:1000130006E92582F8E622BBFE06E92582F8E222FC
:0D002300E58229F582E5833AF583E4932216
:10003000EF8DF0A4A8F0CF8CF0A428CE8DF0A42EE4
:02004000FE229E
:10004200BC000BBE0029EF8DF084FFADF022E4CCA2
:10005200F875F008EF2FFFEE33FEEC33FCEE9DEC6B
:10006200984005FCEE9DFE0FD5F0E9E4CEFD22EDB1
:10007200F8F5F0EE8420D21CFEADF075F008EF2FFB
:10008200FFED33FD4007985006D5F0F222C398FDEC
:050092000FD5F0EA2289
:100097007401FF3395E0FEFDFC080808E6CF2FF654
:1000A70018E6CE3EF618E6CD3DF618E6CC3CF6222D
:00000001FF
