:02005100AD07F9
:10005300E4FB74807E00A803088006CEA2E713CEDB
:1000630013D8F8FFEDF582EF558224FF92B4D2B690
:0A007300C2B60BBB08DCD2B5C2B563
:01007D002260
:10000300C2B6C2B57D3C7C00E4FF12007E7D427C1B
:10001300007F0112007E7DA97C007F0212007E7D9D
:10002300857C007F0312007E7D857C007F041200A7
:100033007E7DA97C007F0512007E7D427C007F06C9
:0E00430012007E7D3C7C007F0712007E80B69E
:1000A000EF1FAA0670011E4A60087D031DED60F077
:0200B00080FAD4
:0100B200222B
:10007E008F08AF05120051AF087480A807088002E0
:10008E00C313D8FCF4F5807F327E001200A0758079
:02009E00FF223F
:030000000200B348
:0C00B300787FE4F6D8FD75810902000397
:00000001FF
