:0704C3006E756D62657200A9
:1002E100E4F508F50912046E7BFF7A0479C37D01F8
:1002F1007F011203FA7B007A007908120003E509F5
:100301004508600E750E02AB09AA087D017F021235
:0B031100043B7F037E0012048280DAB0
:06049400C2A58F80D2A773
:08049A007F027EEFDEFEDFFCB5
:0104A2002237
:0A04AF00C2A6120494C2A702049A28
:10041D00CFCDCFCECCCE12026D7C007D0A12026DF7
:04042D00ED2430FF8B
:0A043100D2A6120494C2A702049A96
:10045800AE07BE0104ED148006BE0209ED243F4438
:0604680080FF1204AF2228
:10046E007F381204AF7F0C1204AF7F061204AF7FE9
:04047E00010204AFC4
:0A04B900AC03120458AF0402043132
:0603FA008B0A8A0B890C3E
:10040000120458E4FDAB0AAA0BA90C8D8275830077
:0C04100012022EFF60061204310D80E97C
:01041C0022BD
:0C03C7007F0AEA24FFFDE434FFFC7E0006
:0803D3008E0F8F108C118D12AA
:1003DB007F017E00E4FBEBC39512E5116480F8749A
:0E03EB008098500AAC0FAD1012025B0B80E838
:0103F90022E1
:04043B008A0C8B0D8F
:10043F00120458AA0EEAD39400400D1203C7AC0C55
:08044F00AD0D12041D1A80ED31
:010457002282
:10031C00120458C3EA64809480400B7F2B12043182
:10032C008A188B19800E7F2D120431C3E49BF519AA
:10033C00E49AF518AA17EAD39400400D1203C7AC3F
:09034C0018AD1912041D1A80ED10
:010355002285
:040356008A1C8B1D55
:10035A00120458AA1EEAD3940040297F101203C936
:10036A00AC1CAD1DCFCDCFCECCCE12026DEF540F4B
:10037A00FEC3940AEE5004243080022437FF12048C
:04038A00311A80D1D3
:01038E00224C
:04038F008A218B2212
:10039300120458AA23EAD394004028EA24FFFDE478
:1003A30034FFFC7F027E001203D3AC21AD22CFCDFC
:1003B300CFCECCCE12026DEF54012430FF120431A4
:0303C3001A80D2CB
:0103C6002214
:100003008B0A8A0B890C7590FFC29320971E7F037E
:100013007E001204823097FD7F037E00120482ABC0
:100023000AAA0BA90CE475F0011202C220961E7FE6
:10003300037E001204823096FD7F037E0012048249
:10004300AB0AAA0BA90CE475F0051202C220951E97
:100053007F037E001204823095FD7F037E0012042D
:1000630082AB0AAA0BA90CE475F0091202C2209410
:100073001E7F037E001204823094FD7F037E0012F4
:100083000482AB0AAA0BA90CE475F00D1202C27527
:1000930090FFC29220971E7F037E00120482309746
:1000A300FD7F037E00120482AB0AAA0BA90CE47540
:1000B300F0021202C220961E7F037E0012048230D9
:1000C30096FD7F037E00120482AB0AAA0BA90CE4FF
:1000D30075F0061202C220951E7F037E0012048271
:1000E3003095FD7F037E00120482AB0AAA0BA90C94
:1000F300E475F00A1202C220941E7F037E001204EC
:10010300823094FD7F037E00120482AB0AAA0BA9FE
:100113000CE475F00E1202C27590FFC29120971E77
:100123007F037E001204823097FD7F037E0012045A
:1001330082AB0AAA0BA90CE475F0031202C2209643
:100143001E7F037E001204823096FD7F037E001221
:100153000482AB0AAA0BA90CE475F0071202C220B1
:10016300951E7F037E001204823095FD7F037E007F
:10017300120482AB0AAA0BA90CE475F00B1202C29B
:1001830020941E7F037E001204823094FD7F037E41
:1001930000120482AB0AAA0BA90CE475F00F120239
:1001A300C27590FFC29020971E7F037E00120482C7
:1001B3003097FD7F037E00120482AB0AAA0BA90CC1
:1001C300E475F0041202C220961E7F037E0012041F
:1001D300823096FD7F037E00120482AB0AAA0BA92C
:1001E3000CE475F0081202C220951E7F037E0012F4
:1001F30004823095FD7F037E00120482AB0AAA0BB2
:10020300A90CE475F00C1202C220941E7F037E0039
:100213001204823094FD7F037E00120482AB0AAA8B
:0B0223000BA90CE475F0101202C222BF
:100482007C007D6412025BEF1FAC0670011E4C7093
:01049200F673
:010493002246
:030000000204A354
:0C04A300787FE4F6D8FD7581230202E1A9
:10022E00BB010CE58229F582E5833AF583E0225085
:10023E0006E92582F8E622BBFE06E92582F8E222CF
:0D024E00E58229F582E5833AF583E49322E9
:10025B00EF8DF0A4A8F0CF8CF0A428CE8DF0A42EB7
:02026B00FE2271
:10026D00BC000BBE0029EF8DF084FFADF022E4CC75
:10027D00F875F008EF2FFFEE33FEEC33FCEE9DEC3E
:10028D00984005FCEE9DFE0FD5F0E9E4CEFD22ED84
:10029D00F8F5F0EE8420D21CFEADF075F008EF2FCE
:1002AD00FFED33FD4007985006D5F0F222C398FDBF
:0502BD000FD5F0EA225C
:1002C200BB010A89828A83F0E5F0A3F0225006F787
:0F02D20009A7F01922BBFE06F3E5F009F3192284
:00000001FF
