:0C026B00020A000002080000020C000063
:1001A800120257E50A70FCE50B24FE600F1460117B
:1001B800146013240370EC12010280E712016580B9
:0B01C800E21201D380DD12027880D823
:03000B0002009A56
:10009A00C0E0C0F0C083C082C0D075D000C000C02C
:1000AA0001C002C003C004C005C006C007758CFCAD
:1000BA00758A17050DE50D7002050CC394C8E50C89
:1000CA00648094804017750C00750D001201FA8E39
:1000DA00088F09EF4E600685080A85090BD007D0FC
:1000EA0006D005D004D003D002D001D000D0D0D0A1
:0800FA0082D083D0F0D0E03287
:1001FA0020B0057E007F012220B1057E007F022209
:10020A0020B2057E007F032220B3057E007F0422F0
:04021A00E4FEFF22DD
:10023E00E47511E8751003F50FF50E780E74FF12C4
:08024E000220EC4D4E4F70F34D
:010256002285
:10010200C2A012023ED2A0C2A112023ED2A1C2A23B
:1001120012023ED2A2C2A312023ED2A3C2A4120271
:100122003ED2A4C2A512023ED2A5C2A612023ED25D
:10013200A6C2A712023ED2A7C2A612023ED2A6C2EF
:10014200A512023ED2A5C2A412023ED2A4C2A3129A
:10015200023ED2A3C2A212023ED2A2C2A112023E09
:03016200D2A12205
:10016500C2A0C2A712023ED2A0D2A7C2A1C2A612A5
:10017500023ED2A1D2A6C2A2C2A512023ED2A2D2EC
:10018500A5C2A3C2A412023ED2A3D2A4C2A2C2A5F2
:1001950012023ED2A2D2A5C2A1C2A612023ED2A18D
:0301A500D2A622BD
:1001D300C2A1C2A3C2A5C2A712023ED2A1D2A3D278
:1001E300A5D2A7C2A0C2A2C2A4C2A612023ED2A096
:0701F300D2A2D2A4D2A62281
:0C027800E4F5A012023E75A0FF02023E59
:10025700758901C28DD28C758CFC758A17D2A9D28B
:04026700AFC2B92247
:0300000002000EED
:0C000E00787FE4F6D8FD758111020055E2
:10021E007401FF3395E0FEFDFC080808E6CF2FF6CB
:10022E0018E6CE3EF618E6CD3DF618E6CC3CF622A4
:10001A000201A8E493A3F8E493A34003F68001F253
:10002A0008DFF48029E493A3F85407240CC8C333E7
:10003A00C4540F4420C8834004F456800146F6DFB6
:10004A00E4800B010204081020408090026BE47ED9
:10005A00019360BCA3FF543F30E509541FFEE493AB
:10006A00A360010ECF54C025E060A840B8E493A372
:10007A00FAE493A3F8E493A3C8C582C8CAC583CA9D
:10008A00F0A3C8C582C8CAC583CADFE9DEE780BE55
:010277000086
:00000001FF
