:0801DD001200031201ED80FB8A
:030023000200C117
:1000C100C0E0C0F0C083C082C0D075D000C000C005
:1000D10001C002C003C004C005C006C007AF99E457
:1000E1007021EF24FE600F1460111460132403705B
:1000F10012120026800D12011F800812017A80035E
:100101001201BED007D006D005D004D003D002D052
:0E01110001D000D0D0D082D083D0F0D0E03228
:1000030053877F75985053890F438920758BFD75EE
:0B0013008DFDC2ABD28ED2AFD2AC226A
:0801E5008F9930B5FDC299228B
:0601ED003098FDC29822CB
:1001A900EF1FAC0670011E4C600A7D187C55DCFE01
:0401B900DDFC80ECFD
:0101BD00221F
:10002600C2A07F647E001201A9D2A0C2A17F647E15
:10003600001201A9D2A1C2A27F647E001201A9D238
:10004600A2C2A37F647E001201A9D2A3C2A47F64C8
:100056007E001201A9D2A4C2A57F647E001201A966
:10006600D2A5C2A67F647E001201A9D2A6C2A77F2E
:10007600647E001201A9D2A7C2A67F647E00120187
:10008600A9D2A6C2A57F647E001201A9D2A5C2A4E8
:100096007F647E001201A9D2A4C2A37F647E0012EF
:1000A60001A9D2A3C2A27F647E001201A9D2A2C274
:0B00B600A17F647E001201A9D2A122EC
:10011F00C2A0C2A77F647E001201A9D2A0D2A7C23B
:10012F00A1C2A67F647E001201A9D2A1D2A6C2A24B
:10013F00C2A57F647E001201A9D2A2D2A5C2A3C21A
:10014F00A47F647E001201A9D2A3D2A4C2A2C2A529
:10015F007F647E001201A9D2A2D2A5C2A1C2A67F3E
:0B016F00647E001201A9D2A1D2A622DA
:10017A00C2A1C2A3C2A5C2A77F647E001201A9D2EE
:10018A00A1D2A3D2A5D2A7C2A0C2A2C2A4C2A67F4C
:0F019A00647E001201A9D2A0D2A2D2A4D2A622C2
:1001BE00E4F5A07F64FE1201A975A0FF7F647E00A6
:0301CE000201A982
:030000000201D129
:0C01D100787FE4F6D8FD7581070201DD9F
:00000001FF
