:1004CD0050617373776F7264007269676874006549
:0504DD0072726F720055
:04052B00022804D2CC
:10017500E4F508F509F50AF50BF50CF50D1204E2A1
:100185007BFF7A0479CD7D017F01120459AF09AE59
:10019500081200038E0A8F0BE50B640C450A7017D5
:1001A500F50CF50D751204AB0DAA0C7D017F02123D
:1001B500049AE4F50AF50BE50B640B450A7024E592
:1001C50029B50D0DE528B50C087BFF7A0479D68095
:1001D500067BFF7A0479DC7D0A7F01120459E4F578
:1001E5000AF50BE50B450A604BE50D450C700885D6
:1001F5000A0C850B0D803DD3E50D940FE50C64804D
:1002050094A74007E4F50AF50B8029AE0CAF0D7CE9
:10021500007D0A120288E50B2FF50DE50A3EF50C67
:10022500E50B640A450A700C74F6250DF50D74FF8F
:10023500350CF50CE50B450A600E751204AB0DAADD
:100245000C7D017F0212049AE4F50AF50B7F03FE8B
:060255001204F602019202
:06050800C2A58F80D2A7FE
:08050E007F027EEFDEFEDFFC40
:0105160022C2
:0A051700C2A6120508C2A702050ED5
:10047C00CFCDCFCECCCE12029A7C007D0A12029A3E
:04048C00ED2430FF2C
:0A049000D2A6120508C2A702050E4D
:1004B700AE07BE0104ED148006BE0209ED243F44D9
:0604C70080FF1205172260
:1004E2007F381205177F0C1205177F061205177F3A
:0404F20001020517E7
:0A052100AC031204B7AF040204900B
:060459008B0E8A0F8910D2
:10045F001204B7E4FDAB0EAA0FA9108D82758300AD
:0C046F0012025BFF60061204900D80E991
:01047B00225E
:0C0426007F0AEA24FFFDE434FFFC7E00A6
:080432008E138F148C158D163A
:10043A007F017E00E4FBEBC39516E5156480F87432
:0E044A008098500AAC13AD141202880B80E8A3
:010458002281
:04049A008A108B1128
:10049E001204B7AA12EAD39400400D120426AC102F
:0804AE00AD1112047C1A80ED6F
:0104B6002223
:10037B001204B7C3EA64809480400B7F2B12049065
:10038B008A1C8B1D800E7F2D120490C3E49BF51DE0
:10039B00E49AF51CAA1BEAD39400400D120426AC78
:0903AB001CAD1D12047C1A80ED4A
:0103B4002226
:0403B5008A208B21EE
:1003B9001204B7AA22EAD3940040297F1012042814
:1003C900AC20AD21CFCDCFCECCCE12029AEF540FB7
:1003D900FEC3940AEE5004243080022437FF12042D
:0403E900901A80D115
:0103ED0022ED
:0403EE008A258B26AB
:1003F2001204B7AA27EAD394004028EA24FFFDE4B6
:1004020034FFFC7F027E00120432AC25AD26CFCD34
:10041200CFCECCCE12029AEF54012430FF120490B8
:030422001A80D26B
:0104250022B4
:100003008E0E8F0F7590FFC29320971A7F037E0089
:100013001204F63097FD7F037E001204F6750E007E
:10002300750F0102017020961A7F037E001204F6F9
:100033003096FD7F037E001204F6750E00750F05E2
:1000430002017020951A7F037E001204F63095FD9D
:100053007F037E001204F6750E00750F090201700E
:100063007590FFC29220971A7F037E001204F63028
:1000730097FD7F037E001204F6750E00750F0202D2
:10008300017020961A7F037E001204F63096FD7FDE
:10009300037E001204F6750E00750F060201702030
:1000A300951A7F037E001204F63095FD7F037E00D0
:1000B3001204F6750E00750F0A0201707590FFC2E7
:1000C3009120971A7F037E001204F63097FD7F0379
:1000D3007E001204F6750E00750F03020170209660
:1000E300197F037E001204F63096FD7F037E001213
:1000F30004F6750E00750F0780732095197F037E34
:10010300001204F63095FD7F037E001204F6750E8F
:1001130000750F0B80577590FFC2902097197F03CE
:100123007E001204F63097FD7F037E001204F675FD
:100133000E00750F0480362096197F037E0012048B
:10014300F63096FD7F037E001204F6750E00750FE0
:1001530008801A20951B7F037E001204F63095FD5C
:100163007F037E001204F6750E00750F0CAE0EAF02
:020173000F2259
:1004F6007C007D64120288EF1FAC0670011E4C70F2
:01050600F6FE
:0105070022D1
:030000000202EF0A
:0C02EF00787FE4F6D8FD75812902033603
:10025B00BB010CE58229F582E5833AF583E0225058
:10026B0006E92582F8E622BBFE06E92582F8E222A2
:0D027B00E58229F582E5833AF583E49322BC
:10028800EF8DF0A4A8F0CF8CF0A428CE8DF0A42E8A
:02029800FE2244
:10029A00BC000BBE0029EF8DF084FFADF022E4CC48
:1002AA00F875F008EF2FFFEE33FEEC33FCEE9DEC11
:1002BA00984005FCEE9DFE0FD5F0E9E4CEFD22ED57
:1002CA00F8F5F0EE8420D21CFEADF075F008EF2FA1
:1002DA00FFED33FD4007985006D5F0F222C398FD92
:0502EA000FD5F0EA222F
:1002FB00020175E493A3F8E493A34003F68001F2A3
:10030B0008DFF48029E493A3F85407240CC8C33303
:10031B00C4540F4420C8834004F456800146F6DFD2
:10032B00E4800B010204081020408090052BE47E32
:10033B00019360BCA3FF543F30E509541FFEE493C7
:10034B00A360010ECF54C025E060A840B8E493A38E
:10035B00FAE493A3F8E493A3C8C582C8CAC583CAB9
:10036B00F0A3C8C582C8CAC583CADFE9DEE780BE71
:01052F0000CB
:00000001FF
