:0204C600AD0780
:1004C800E4FB74807E00A803088006CEA2E713CE62
:1004D80013D8F8FFEDF582EF558224FF92B4D2B617
:0A04E800C2B60BBB08DCD2B5C2B5EA
:0104F20022E7
:09053200C2B6C2B512000E80FB36
:10051100EF1FAA0670011E4A60087D031DED60F001
:0205210080FA5E
:0105230022B5
:0E0524005389F0758A30758CF8C28DD28C2206
:1004F3008F0CAF051204C6AF0C7480A807088002E6
:0E050300C313D8FCF4F5807F327E0002051190
:08053B00020A0064020800003E
:10000E00120524E50B450A60137D3C7C007F071228
:10001E0004F3E50B150B70EB150A80E7750A0075F6
:10002E000B647F647E001205117580FFE50B450A97
:10003E00601C7D3C7C007F061204F37D427C007FB9
:10004E00071204F3E50B150B70E2150A80DE750A34
:10005E0000750B647580FF7D3C7C007F051204F3F8
:10006E007D427C007F061204F37DA97C007F07127F
:10007E0004F3E50B150B7002150AE50B450A70D754
:10008E00750A00750B647580FF7D3C7C007F041241
:10009E0004F37D427C007F051204F37DA97C007F72
:1000AE00061204F37D857C007F071204F3E50B1521
:1000BE000B7002150AE50B450A70CE750A00750B1A
:1000CE00647580FF7D3C7C007F031204F37D427CCF
:1000DE00007F041204F37DA97C007F051204F37DDA
:1000EE00857C007F061204F37D857C007F07120459
:1000FE00F3E50B150B7002150AE50B450A70C57575
:10010E000A00750B647580FF7D3C7C007F02120433
:10011E00F37D427C007F031204F37DA97C007F04F3
:10012E001204F37D857C007F051204F37D857C002F
:10013E007F061204F37DA97C007F071204F3E50B02
:10014E00150B7002150AE50B450A70BC750A007591
:10015E000B647580FF7D3C7C007F011204F37D42B1
:10016E007C007F021204F37DA97C007F031204F34E
:10017E007D857C007F041204F37D857C007F051253
:10018E0004F37DA97C007F061204F37D427C007F80
:10019E00071204F3E50B150B7002150AE50B450A61
:1001AE0070B3750A00750B647580FF7D3C7C00E4AE
:1001BE00FF1204F37D427C007F011204F37DA97CC3
:1001CE00007F021204F37D857C007F031204F37D11
:1001DE00857C007F041204F37DA97C007F05120448
:1001EE00F37D427C007F061204F37D3C7C007F078A
:1001FE001204F3E50B150B7002150AE50B450A7098
:10020E00AA750A00750B647580FF7D427C00E4FFC1
:10021E001204F37DA97C007F011204F37D857C001E
:10022E007F021204F37D857C007F031204F37DA907
:10023E007C007F041204F37D427C007F051204F3E0
:10024E007D3C7C007F061204F3E50B150B70021546
:10025E000AE50B450A70B3750A00750B647580FFCD
:10026E007DA97C00E4FF1204F37D857C007F0112E2
:10027E0004F37D857C007F021204F37DA97C007F50
:10028E00031204F37D427C007F041204F37D3C7C58
:10029E00007F051204F3E50B150B7002150AE50B32
:1002AE00450A70BC750A00750B647580FF7D857CF0
:1002BE0000E4FF1204F37D857C007F011204F37DC0
:1002CE00A97C007F021204F37D427C007F0312049E
:1002DE00F37D3C7C007F041204F3E50B150B7002DA
:1002EE00150AE50B450A70C5750A00750B64758015
:1002FE00FF7D857C00E4FF1204F37DA97C007F0165
:10030E001204F37D427C007F021204F37D3C7C00DC
:10031E007F031204F3E50B150B7002150AE50B456E
:10032E000A70CE750A00750B647580FF7DA97C007E
:10033E00E4FF1204F37D427C007F011204F37D3C46
:10034E007C007F021204F3E50B150B7002150AE513
:10035E000B450A70D7750A00750B647580FF7D42D8
:10036E007C00E4FF1204F37D3C7C007F011204F359
:10037E00E50B150B7002150AE50B450A70E0750AC0
:10038E0000750B647580FF7D3C7C00E4FF1204F366
:10039E00E50B150B7002150AE50B450A70E9750A97
:1003AE0000750B647580FF7F647E00120511E50BEE
:1003BE00150B7002150AE50B450A70EB7580FF22CE
:03000B0002045A92
:10045A00C0E0C0F0C083C082C0D075D000C000C068
:0D046A0001C002C003C004C005C006C007E9
:10047700758A30758CF8C2A10509E509700205086F
:10048700C394F4E5086480948140197508007509E0
:1004970000750A00750B007F647E00120511750A4E
:0404A70000750B01D0
:1004AB00D007D006D005D004D003D002D001D000A5
:0B04BB00D0D0D082D083D0F0D0E0324F
:030000000203CE2A
:0C03CE00787FE4F6D8FD75810C02041560
:1003DA00020532E493A3F8E493A34003F68001F202
:1003EA0008DFF48029E493A3F85407240CC8C33324
:1003FA00C4540F4420C8834004F456800146F6DFF3
:10040A00E4800B010204081020408090053BE47E42
:10041A00019360BCA3FF543F30E509541FFEE493E7
:10042A00A360010ECF54C025E060A840B8E493A3AE
:10043A00FAE493A3F8E493A3C8C582C8CAC583CAD9
:10044A00F0A3C8C582C8CAC583CADFE9DEE780BE91
:0105430000B7
:00000001FF
